{
    "_format": "hh-sol-artifact-1",
    "contractName": "Web3Mint",
    "sourceName": "contracts/Web3Mint.sol",
    "abi": [
        {
            "inputs": [],
            "stateMutability": "nonpayable",
            "type": "constructor"
        },
        {
            "anonymous": false,
            "inputs": [
                {
                    "indexed": true,
                    "internalType": "address",
                    "name": "owner",
                    "type": "address"
                },
                {
                    "indexed": true,
                    "internalType": "address",
                    "name": "approved",
                    "type": "address"
                },
                {
                    "indexed": true,
                    "internalType": "uint256",
                    "name": "tokenId",
                    "type": "uint256"
                }
            ],
            "name": "Approval",
            "type": "event"
        },
        {
            "anonymous": false,
            "inputs": [
                {
                    "indexed": true,
                    "internalType": "address",
                    "name": "owner",
                    "type": "address"
                },
                {
                    "indexed": true,
                    "internalType": "address",
                    "name": "operator",
                    "type": "address"
                },
                {
                    "indexed": false,
                    "internalType": "bool",
                    "name": "approved",
                    "type": "bool"
                }
            ],
            "name": "ApprovalForAll",
            "type": "event"
        },
        {
            "anonymous": false,
            "inputs": [
                {
                    "indexed": true,
                    "internalType": "address",
                    "name": "from",
                    "type": "address"
                },
                {
                    "indexed": true,
                    "internalType": "address",
                    "name": "to",
                    "type": "address"
                },
                {
                    "indexed": true,
                    "internalType": "uint256",
                    "name": "tokenId",
                    "type": "uint256"
                }
            ],
            "name": "Transfer",
            "type": "event"
        },
        {
            "inputs": [
                {
                    "internalType": "address",
                    "name": "to",
                    "type": "address"
                },
                {
                    "internalType": "uint256",
                    "name": "tokenId",
                    "type": "uint256"
                }
            ],
            "name": "approve",
            "outputs": [],
            "stateMutability": "nonpayable",
            "type": "function"
        },
        {
            "inputs": [
                {
                    "internalType": "address",
                    "name": "owner",
                    "type": "address"
                }
            ],
            "name": "balanceOf",
            "outputs": [
                {
                    "internalType": "uint256",
                    "name": "",
                    "type": "uint256"
                }
            ],
            "stateMutability": "view",
            "type": "function"
        },
        {
            "inputs": [
                {
                    "internalType": "uint256",
                    "name": "tokenId",
                    "type": "uint256"
                }
            ],
            "name": "getApproved",
            "outputs": [
                {
                    "internalType": "address",
                    "name": "",
                    "type": "address"
                }
            ],
            "stateMutability": "view",
            "type": "function"
        },
        {
            "inputs": [
                {
                    "internalType": "address",
                    "name": "owner",
                    "type": "address"
                },
                {
                    "internalType": "address",
                    "name": "operator",
                    "type": "address"
                }
            ],
            "name": "isApprovedForAll",
            "outputs": [
                {
                    "internalType": "bool",
                    "name": "",
                    "type": "bool"
                }
            ],
            "stateMutability": "view",
            "type": "function"
        },
        {
            "inputs": [
                {
                    "internalType": "string",
                    "name": "name",
                    "type": "string"
                },
                {
                    "internalType": "string",
                    "name": "imageURI",
                    "type": "string"
                }
            ],
            "name": "mintIpfsNFT",
            "outputs": [],
            "stateMutability": "nonpayable",
            "type": "function"
        },
        {
            "inputs": [],
            "name": "name",
            "outputs": [
                {
                    "internalType": "string",
                    "name": "",
                    "type": "string"
                }
            ],
            "stateMutability": "view",
            "type": "function"
        },
        {
            "inputs": [
                {
                    "internalType": "uint256",
                    "name": "tokenId",
                    "type": "uint256"
                }
            ],
            "name": "ownerOf",
            "outputs": [
                {
                    "internalType": "address",
                    "name": "",
                    "type": "address"
                }
            ],
            "stateMutability": "view",
            "type": "function"
        },
        {
            "inputs": [
                {
                    "internalType": "address",
                    "name": "from",
                    "type": "address"
                },
                {
                    "internalType": "address",
                    "name": "to",
                    "type": "address"
                },
                {
                    "internalType": "uint256",
                    "name": "tokenId",
                    "type": "uint256"
                }
            ],
            "name": "safeTransferFrom",
            "outputs": [],
            "stateMutability": "nonpayable",
            "type": "function"
        },
        {
            "inputs": [
                {
                    "internalType": "address",
                    "name": "from",
                    "type": "address"
                },
                {
                    "internalType": "address",
                    "name": "to",
                    "type": "address"
                },
                {
                    "internalType": "uint256",
                    "name": "tokenId",
                    "type": "uint256"
                },
                {
                    "internalType": "bytes",
                    "name": "data",
                    "type": "bytes"
                }
            ],
            "name": "safeTransferFrom",
            "outputs": [],
            "stateMutability": "nonpayable",
            "type": "function"
        },
        {
            "inputs": [
                {
                    "internalType": "address",
                    "name": "operator",
                    "type": "address"
                },
                {
                    "internalType": "bool",
                    "name": "approved",
                    "type": "bool"
                }
            ],
            "name": "setApprovalForAll",
            "outputs": [],
            "stateMutability": "nonpayable",
            "type": "function"
        },
        {
            "inputs": [
                {
                    "internalType": "bytes4",
                    "name": "interfaceId",
                    "type": "bytes4"
                }
            ],
            "name": "supportsInterface",
            "outputs": [
                {
                    "internalType": "bool",
                    "name": "",
                    "type": "bool"
                }
            ],
            "stateMutability": "view",
            "type": "function"
        },
        {
            "inputs": [],
            "name": "symbol",
            "outputs": [
                {
                    "internalType": "string",
                    "name": "",
                    "type": "string"
                }
            ],
            "stateMutability": "view",
            "type": "function"
        },
        {
            "inputs": [
                {
                    "internalType": "uint256",
                    "name": "_tokenId",
                    "type": "uint256"
                }
            ],
            "name": "tokenURI",
            "outputs": [
                {
                    "internalType": "string",
                    "name": "",
                    "type": "string"
                }
            ],
            "stateMutability": "view",
            "type": "function"
        },
        {
            "inputs": [
                {
                    "internalType": "address",
                    "name": "from",
                    "type": "address"
                },
                {
                    "internalType": "address",
                    "name": "to",
                    "type": "address"
                },
                {
                    "internalType": "uint256",
                    "name": "tokenId",
                    "type": "uint256"
                }
            ],
            "name": "transferFrom",
            "outputs": [],
            "stateMutability": "nonpayable",
            "type": "function"
        }
    ],
    "bytecode": "0x60806040523480156200001157600080fd5b506040518060400160405280600b81526020017f6e69636f6b756d614e46540000000000000000000000000000000000000000008152506040518060400160405280600881526020017f4e49434f4b554d4100000000000000000000000000000000000000000000000081525081600090816200008f919062000324565b508060019081620000a1919062000324565b5050506200040b565b600081519050919050565b7f4e487b7100000000000000000000000000000000000000000000000000000000600052604160045260246000fd5b7f4e487b7100000000000000000000000000000000000000000000000000000000600052602260045260246000fd5b600060028204905060018216806200012c57607f821691505b602082108103620001425762000141620000e4565b5b50919050565b60008190508160005260206000209050919050565b60006020601f8301049050919050565b600082821b905092915050565b600060088302620001ac7fffffffffffffffffffffffffffffffffffffffffffffffffffffffffffffffff826200016d565b620001b886836200016d565b95508019841693508086168417925050509392505050565b6000819050919050565b6000819050919050565b600062000205620001ff620001f984620001d0565b620001da565b620001d0565b9050919050565b6000819050919050565b6200022183620001e4565b6200023962000230826200020c565b8484546200017a565b825550505050565b600090565b6200025062000241565b6200025d81848462000216565b505050565b5b8181101562000285576200027960008262000246565b60018101905062000263565b5050565b601f821115620002d4576200029e8162000148565b620002a9846200015d565b81016020851015620002b9578190505b620002d1620002c8856200015d565b83018262000262565b50505b505050565b600082821c905092915050565b6000620002f960001984600802620002d9565b1980831691505092915050565b6000620003148383620002e6565b9150826002028217905092915050565b6200032f82620000aa565b67ffffffffffffffff8111156200034b576200034a620000b5565b5b62000357825462000113565b6200036482828562000289565b600060209050601f8311600181146200039c576000841562000387578287015190505b62000393858262000306565b86555062000403565b601f198416620003ac8662000148565b60005b82811015620003d657848901518255600182019150602085019450602081019050620003af565b86831015620003f65784890151620003f2601f891682620002e6565b8355505b6001600288020188555050505b505050505050565b612ea2806200041b6000396000f3fe608060405234801561001057600080fd5b50600436106100ea5760003560e01c806370a082311161008c578063b88d4fde11610066578063b88d4fde1461025b578063c87b56dd14610277578063e985e9c5146102a7578063eb00195d146102d7576100ea565b806370a08231146101f157806395d89b4114610221578063a22cb4651461023f576100ea565b8063095ea7b3116100c8578063095ea7b31461016d57806323b872dd1461018957806342842e0e146101a55780636352211e146101c1576100ea565b806301ffc9a7146100ef57806306fdde031461011f578063081812fc1461013d575b600080fd5b61010960048036038101906101049190611a42565b6102f3565b6040516101169190611a8a565b60405180910390f35b6101276103d5565b6040516101349190611b35565b60405180910390f35b61015760048036038101906101529190611b8d565b610467565b6040516101649190611bfb565b60405180910390f35b61018760048036038101906101829190611c42565b6104ad565b005b6101a3600480360381019061019e9190611c82565b6105c4565b005b6101bf60048036038101906101ba9190611c82565b610624565b005b6101db60048036038101906101d69190611b8d565b610644565b6040516101e89190611bfb565b60405180910390f35b61020b60048036038101906102069190611cd5565b6106ca565b6040516102189190611d11565b60405180910390f35b610229610781565b6040516102369190611b35565b60405180910390f35b61025960048036038101906102549190611d58565b610813565b005b61027560048036038101906102709190611ecd565b610829565b005b610291600480360381019061028c9190611b8d565b61088b565b60405161029e9190611b35565b60405180910390f35b6102c160048036038101906102bc9190611f50565b61093b565b6040516102ce9190611a8a565b60405180910390f35b6102f160048036038101906102ec9190612031565b6109cf565b005b60007f80ac58cd000000000000000000000000000000000000000000000000000000007bffffffffffffffffffffffffffffffffffffffffffffffffffffffff1916827bffffffffffffffffffffffffffffffffffffffffffffffffffffffff191614806103be57507f5b5e139f000000000000000000000000000000000000000000000000000000007bffffffffffffffffffffffffffffffffffffffffffffffffffffffff1916827bffffffffffffffffffffffffffffffffffffffffffffffffffffffff1916145b806103ce57506103cd82610a64565b5b9050919050565b6060600080546103e4906120d8565b80601f0160208091040260200160405190810160405280929190818152602001828054610410906120d8565b801561045d5780601f106104325761010080835404028352916020019161045d565b820191906000526020600020905b81548152906001019060200180831161044057829003601f168201915b5050505050905090565b600061047282610ace565b6004600083815260200190815260200160002060009054906101000a900473ffffffffffffffffffffffffffffffffffffffff169050919050565b60006104b882610644565b90508073ffffffffffffffffffffffffffffffffffffffff168373ffffffffffffffffffffffffffffffffffffffff1603610528576040517f08c379a000000000000000000000000000000000000000000000000000000000815260040161051f9061217b565b60405180910390fd5b8073ffffffffffffffffffffffffffffffffffffffff16610547610b19565b73ffffffffffffffffffffffffffffffffffffffff161480610576575061057581610570610b19565b61093b565b5b6105b5576040517f08c379a00000000000000000000000000000000000000000000000000000000081526004016105ac9061220d565b60405180910390fd5b6105bf8383610b21565b505050565b6105d56105cf610b19565b82610bda565b610614576040517f08c379a000000000000000000000000000000000000000000000000000000000815260040161060b9061229f565b60405180910390fd5b61061f838383610c6f565b505050565b61063f83838360405180602001604052806000815250610829565b505050565b60008061065083610f68565b9050600073ffffffffffffffffffffffffffffffffffffffff168173ffffffffffffffffffffffffffffffffffffffff16036106c1576040517f08c379a00000000000000000000000000000000000000000000000000000000081526004016106b89061230b565b60405180910390fd5b80915050919050565b60008073ffffffffffffffffffffffffffffffffffffffff168273ffffffffffffffffffffffffffffffffffffffff160361073a576040517f08c379a00000000000000000000000000000000000000000000000000000000081526004016107319061239d565b60405180910390fd5b600360008373ffffffffffffffffffffffffffffffffffffffff1673ffffffffffffffffffffffffffffffffffffffff168152602001908152602001600020549050919050565b606060018054610790906120d8565b80601f01602080910402602001604051908101604052809291908181526020018280546107bc906120d8565b80156108095780601f106107de57610100808354040283529160200191610809565b820191906000526020600020905b8154815290600101906020018083116107ec57829003601f168201915b5050505050905090565b61082561081e610b19565b8383610fa5565b5050565b61083a610834610b19565b83610bda565b610879576040517f08c379a00000000000000000000000000000000000000000000000000000000081526004016108709061229f565b60405180910390fd5b61088584848484611111565b50505050565b6060600061090b600684815481106108a6576108a56123bd565b5b90600052602060002090600202016000016108c08561116d565b600686815481106108d4576108d36123bd565b5b90600052602060002090600202016001016040516020016108f793929190612616565b60405160208183030381529060405261123b565b905060008160405160200161092091906126bf565b60405160208183030381529060405290508092505050919050565b6000600560008473ffffffffffffffffffffffffffffffffffffffff1673ffffffffffffffffffffffffffffffffffffffff16815260200190815260200160002060008373ffffffffffffffffffffffffffffffffffffffff1673ffffffffffffffffffffffffffffffffffffffff16815260200190815260200160002060009054906101000a900460ff16905092915050565b60006109db60076113d2565b90506109e733826113e0565b600660405180604001604052808581526020018481525090806001815401808255809150506001900390600052602060002090600202016000909190919091506000820151816000019081610a3c9190612878565b506020820151816001019081610a529190612878565b505050610a5f60076113fe565b505050565b60007f01ffc9a7000000000000000000000000000000000000000000000000000000007bffffffffffffffffffffffffffffffffffffffffffffffffffffffff1916827bffffffffffffffffffffffffffffffffffffffffffffffffffffffff1916149050919050565b610ad781611414565b610b16576040517f08c379a0000000000000000000000000000000000000000000000000000000008152600401610b0d9061230b565b60405180910390fd5b50565b600033905090565b816004600083815260200190815260200160002060006101000a81548173ffffffffffffffffffffffffffffffffffffffff021916908373ffffffffffffffffffffffffffffffffffffffff160217905550808273ffffffffffffffffffffffffffffffffffffffff16610b9483610644565b73ffffffffffffffffffffffffffffffffffffffff167f8c5be1e5ebec7d5bd14f71427d1e84f3dd0314c0f7b2291e5b200ac8c7c3b92560405160405180910390a45050565b600080610be683610644565b90508073ffffffffffffffffffffffffffffffffffffffff168473ffffffffffffffffffffffffffffffffffffffff161480610c285750610c27818561093b565b5b80610c6657508373ffffffffffffffffffffffffffffffffffffffff16610c4e84610467565b73ffffffffffffffffffffffffffffffffffffffff16145b91505092915050565b8273ffffffffffffffffffffffffffffffffffffffff16610c8f82610644565b73ffffffffffffffffffffffffffffffffffffffff1614610ce5576040517f08c379a0000000000000000000000000000000000000000000000000000000008152600401610cdc906129bc565b60405180910390fd5b600073ffffffffffffffffffffffffffffffffffffffff168273ffffffffffffffffffffffffffffffffffffffff1603610d54576040517f08c379a0000000000000000000000000000000000000000000000000000000008152600401610d4b90612a4e565b60405180910390fd5b610d618383836001611455565b8273ffffffffffffffffffffffffffffffffffffffff16610d8182610644565b73ffffffffffffffffffffffffffffffffffffffff1614610dd7576040517f08c379a0000000000000000000000000000000000000000000000000000000008152600401610dce906129bc565b60405180910390fd5b6004600082815260200190815260200160002060006101000a81549073ffffffffffffffffffffffffffffffffffffffff02191690556001600360008573ffffffffffffffffffffffffffffffffffffffff1673ffffffffffffffffffffffffffffffffffffffff168152602001908152602001600020600082825403925050819055506001600360008473ffffffffffffffffffffffffffffffffffffffff1673ffffffffffffffffffffffffffffffffffffffff16815260200190815260200160002060008282540192505081905550816002600083815260200190815260200160002060006101000a81548173ffffffffffffffffffffffffffffffffffffffff021916908373ffffffffffffffffffffffffffffffffffffffff160217905550808273ffffffffffffffffffffffffffffffffffffffff168473ffffffffffffffffffffffffffffffffffffffff167fddf252ad1be2c89b69c2b068fc378daa952ba7f163c4a11628f55a4df523b3ef60405160405180910390a4610f63838383600161145b565b505050565b60006002600083815260200190815260200160002060009054906101000a900473ffffffffffffffffffffffffffffffffffffffff169050919050565b8173ffffffffffffffffffffffffffffffffffffffff168373ffffffffffffffffffffffffffffffffffffffff1603611013576040517f08c379a000000000000000000000000000000000000000000000000000000000815260040161100a90612aba565b60405180910390fd5b80600560008573ffffffffffffffffffffffffffffffffffffffff1673ffffffffffffffffffffffffffffffffffffffff16815260200190815260200160002060008473ffffffffffffffffffffffffffffffffffffffff1673ffffffffffffffffffffffffffffffffffffffff16815260200190815260200160002060006101000a81548160ff0219169083151502179055508173ffffffffffffffffffffffffffffffffffffffff168373ffffffffffffffffffffffffffffffffffffffff167f17307eab39ab6107e8899845ad3d59bd9653f200f220920489ca2b5937696c31836040516111049190611a8a565b60405180910390a3505050565b61111c848484610c6f565b61112884848484611461565b611167576040517f08c379a000000000000000000000000000000000000000000000000000000000815260040161115e90612b4c565b60405180910390fd5b50505050565b60606000600161117c846115e8565b01905060008167ffffffffffffffff81111561119b5761119a611da2565b5b6040519080825280601f01601f1916602001820160405280156111cd5781602001600182028036833780820191505090505b509050600082602001820190505b600115611230578080600190039150507f3031323334353637383961626364656600000000000000000000000000000000600a86061a8153600a858161122457611223612b6c565b5b049450600085036111db575b819350505050919050565b60606000825190506000810361126357604051806020016040528060008152509150506113cd565b600060036002836112749190612bca565b61127e9190612bfe565b600461128a9190612c2f565b9050600060208261129b9190612bca565b67ffffffffffffffff8111156112b4576112b3611da2565b5b6040519080825280601f01601f1916602001820160405280156112e65781602001600182028036833780820191505090505b5090506000604051806060016040528060408152602001612e2d604091399050600181016020830160005b8681101561138a5760038101905062ffffff818a015116603f8160121c168401518060081b905060ff603f83600c1c1686015116810190508060081b905060ff603f8360061c1686015116810190508060081b905060ff603f831686015116810190508060e01b90508084526004840193505050611311565b5060038606600181146113a457600281146113b4576113bf565b613d3d60f01b60028303526113bf565b603d60f81b60018303525b508484525050819450505050505b919050565b600081600001549050919050565b6113fa82826040518060200160405280600081525061173b565b5050565b6001816000016000828254019250508190555050565b60008073ffffffffffffffffffffffffffffffffffffffff1661143683610f68565b73ffffffffffffffffffffffffffffffffffffffff1614159050919050565b50505050565b50505050565b60006114828473ffffffffffffffffffffffffffffffffffffffff16611796565b156115db578373ffffffffffffffffffffffffffffffffffffffff1663150b7a026114ab610b19565b8786866040518563ffffffff1660e01b81526004016114cd9493929190612cc6565b6020604051808303816000875af192505050801561150957506040513d601f19601f820116820180604052508101906115069190612d27565b60015b61158b573d8060008114611539576040519150601f19603f3d011682016040523d82523d6000602084013e61153e565b606091505b506000815103611583576040517f08c379a000000000000000000000000000000000000000000000000000000000815260040161157a90612b4c565b60405180910390fd5b805181602001fd5b63150b7a0260e01b7bffffffffffffffffffffffffffffffffffffffffffffffffffffffff1916817bffffffffffffffffffffffffffffffffffffffffffffffffffffffff1916149150506115e0565b600190505b949350505050565b600080600090507a184f03e93ff9f4daa797ed6e38ed64bf6a1f0100000000000000008310611646577a184f03e93ff9f4daa797ed6e38ed64bf6a1f010000000000000000838161163c5761163b612b6c565b5b0492506040810190505b6d04ee2d6d415b85acef81000000008310611683576d04ee2d6d415b85acef8100000000838161167957611678612b6c565b5b0492506020810190505b662386f26fc1000083106116b257662386f26fc1000083816116a8576116a7612b6c565b5b0492506010810190505b6305f5e10083106116db576305f5e10083816116d1576116d0612b6c565b5b0492506008810190505b61271083106117005761271083816116f6576116f5612b6c565b5b0492506004810190505b60648310611723576064838161171957611718612b6c565b5b0492506002810190505b600a8310611732576001810190505b80915050919050565b61174583836117b9565b6117526000848484611461565b611791576040517f08c379a000000000000000000000000000000000000000000000000000000000815260040161178890612b4c565b60405180910390fd5b505050565b6000808273ffffffffffffffffffffffffffffffffffffffff163b119050919050565b600073ffffffffffffffffffffffffffffffffffffffff168273ffffffffffffffffffffffffffffffffffffffff1603611828576040517f08c379a000000000000000000000000000000000000000000000000000000000815260040161181f90612da0565b60405180910390fd5b61183181611414565b15611871576040517f08c379a000000000000000000000000000000000000000000000000000000000815260040161186890612e0c565b60405180910390fd5b61187f600083836001611455565b61188881611414565b156118c8576040517f08c379a00000000000000000000000000000000000000000000000000000000081526004016118bf90612e0c565b60405180910390fd5b6001600360008473ffffffffffffffffffffffffffffffffffffffff1673ffffffffffffffffffffffffffffffffffffffff16815260200190815260200160002060008282540192505081905550816002600083815260200190815260200160002060006101000a81548173ffffffffffffffffffffffffffffffffffffffff021916908373ffffffffffffffffffffffffffffffffffffffff160217905550808273ffffffffffffffffffffffffffffffffffffffff16600073ffffffffffffffffffffffffffffffffffffffff167fddf252ad1be2c89b69c2b068fc378daa952ba7f163c4a11628f55a4df523b3ef60405160405180910390a46119d260008383600161145b565b5050565b6000604051905090565b600080fd5b600080fd5b60007fffffffff0000000000000000000000000000000000000000000000000000000082169050919050565b611a1f816119ea565b8114611a2a57600080fd5b50565b600081359050611a3c81611a16565b92915050565b600060208284031215611a5857611a576119e0565b5b6000611a6684828501611a2d565b91505092915050565b60008115159050919050565b611a8481611a6f565b82525050565b6000602082019050611a9f6000830184611a7b565b92915050565b600081519050919050565b600082825260208201905092915050565b60005b83811015611adf578082015181840152602081019050611ac4565b60008484015250505050565b6000601f19601f8301169050919050565b6000611b0782611aa5565b611b118185611ab0565b9350611b21818560208601611ac1565b611b2a81611aeb565b840191505092915050565b60006020820190508181036000830152611b4f8184611afc565b905092915050565b6000819050919050565b611b6a81611b57565b8114611b7557600080fd5b50565b600081359050611b8781611b61565b92915050565b600060208284031215611ba357611ba26119e0565b5b6000611bb184828501611b78565b91505092915050565b600073ffffffffffffffffffffffffffffffffffffffff82169050919050565b6000611be582611bba565b9050919050565b611bf581611bda565b82525050565b6000602082019050611c106000830184611bec565b92915050565b611c1f81611bda565b8114611c2a57600080fd5b50565b600081359050611c3c81611c16565b92915050565b60008060408385031215611c5957611c586119e0565b5b6000611c6785828601611c2d565b9250506020611c7885828601611b78565b9150509250929050565b600080600060608486031215611c9b57611c9a6119e0565b5b6000611ca986828701611c2d565b9350506020611cba86828701611c2d565b9250506040611ccb86828701611b78565b9150509250925092565b600060208284031215611ceb57611cea6119e0565b5b6000611cf984828501611c2d565b91505092915050565b611d0b81611b57565b82525050565b6000602082019050611d266000830184611d02565b92915050565b611d3581611a6f565b8114611d4057600080fd5b50565b600081359050611d5281611d2c565b92915050565b60008060408385031215611d6f57611d6e6119e0565b5b6000611d7d85828601611c2d565b9250506020611d8e85828601611d43565b9150509250929050565b600080fd5b600080fd5b7f4e487b7100000000000000000000000000000000000000000000000000000000600052604160045260246000fd5b611dda82611aeb565b810181811067ffffffffffffffff82111715611df957611df8611da2565b5b80604052505050565b6000611e0c6119d6565b9050611e188282611dd1565b919050565b600067ffffffffffffffff821115611e3857611e37611da2565b5b611e4182611aeb565b9050602081019050919050565b82818337600083830152505050565b6000611e70611e6b84611e1d565b611e02565b905082815260208101848484011115611e8c57611e8b611d9d565b5b611e97848285611e4e565b509392505050565b600082601f830112611eb457611eb3611d98565b5b8135611ec4848260208601611e5d565b91505092915050565b60008060008060808587031215611ee757611ee66119e0565b5b6000611ef587828801611c2d565b9450506020611f0687828801611c2d565b9350506040611f1787828801611b78565b925050606085013567ffffffffffffffff811115611f3857611f376119e5565b5b611f4487828801611e9f565b91505092959194509250565b60008060408385031215611f6757611f666119e0565b5b6000611f7585828601611c2d565b9250506020611f8685828601611c2d565b9150509250929050565b600067ffffffffffffffff821115611fab57611faa611da2565b5b611fb482611aeb565b9050602081019050919050565b6000611fd4611fcf84611f90565b611e02565b905082815260208101848484011115611ff057611fef611d9d565b5b611ffb848285611e4e565b509392505050565b600082601f83011261201857612017611d98565b5b8135612028848260208601611fc1565b91505092915050565b60008060408385031215612048576120476119e0565b5b600083013567ffffffffffffffff811115612066576120656119e5565b5b61207285828601612003565b925050602083013567ffffffffffffffff811115612093576120926119e5565b5b61209f85828601612003565b9150509250929050565b7f4e487b7100000000000000000000000000000000000000000000000000000000600052602260045260246000fd5b600060028204905060018216806120f057607f821691505b602082108103612103576121026120a9565b5b50919050565b7f4552433732313a20617070726f76616c20746f2063757272656e74206f776e6560008201527f7200000000000000000000000000000000000000000000000000000000000000602082015250565b6000612165602183611ab0565b915061217082612109565b604082019050919050565b6000602082019050818103600083015261219481612158565b9050919050565b7f4552433732313a20617070726f76652063616c6c6572206973206e6f7420746f60008201527f6b656e206f776e6572206f7220617070726f76656420666f7220616c6c000000602082015250565b60006121f7603d83611ab0565b91506122028261219b565b604082019050919050565b60006020820190508181036000830152612226816121ea565b9050919050565b7f4552433732313a2063616c6c6572206973206e6f7420746f6b656e206f776e6560008201527f72206f7220617070726f76656400000000000000000000000000000000000000602082015250565b6000612289602d83611ab0565b91506122948261222d565b604082019050919050565b600060208201905081810360008301526122b88161227c565b9050919050565b7f4552433732313a20696e76616c696420746f6b656e2049440000000000000000600082015250565b60006122f5601883611ab0565b9150612300826122bf565b602082019050919050565b60006020820190508181036000830152612324816122e8565b9050919050565b7f4552433732313a2061646472657373207a65726f206973206e6f74206120766160008201527f6c6964206f776e65720000000000000000000000000000000000000000000000602082015250565b6000612387602983611ab0565b91506123928261232b565b604082019050919050565b600060208201905081810360008301526123b68161237a565b9050919050565b7f4e487b7100000000000000000000000000000000000000000000000000000000600052603260045260246000fd5b600081905092915050565b7f7b226e616d65223a202200000000000000000000000000000000000000000000600082015250565b600061242d600a836123ec565b9150612438826123f7565b600a82019050919050565b60008190508160005260206000209050919050565b60008154612465816120d8565b61246f81866123ec565b9450600182166000811461248a576001811461249f576124d2565b60ff19831686528115158202860193506124d2565b6124a885612443565b60005b838110156124ca578154818901526001820191506020810190506124ab565b838801955050505b50505092915050565b7f202d2d204e465420233a20000000000000000000000000000000000000000000600082015250565b6000612511600b836123ec565b915061251c826124db565b600b82019050919050565b600061253282611aa5565b61253c81856123ec565b935061254c818560208601611ac1565b80840191505092915050565b7f222c20226465736372697074696f6e223a2022416e2065706963204e4654222c60008201527f2022696d616765223a2022697066733a2f2f0000000000000000000000000000602082015250565b60006125b46032836123ec565b91506125bf82612558565b603282019050919050565b7f227d000000000000000000000000000000000000000000000000000000000000600082015250565b60006126006002836123ec565b915061260b826125ca565b600282019050919050565b600061262182612420565b915061262d8286612458565b915061263882612504565b91506126448285612527565b915061264f826125a7565b915061265b8284612458565b9150612666826125f3565b9150819050949350505050565b7f646174613a6170706c69636174696f6e2f6a736f6e3b6261736536342c000000600082015250565b60006126a9601d836123ec565b91506126b482612673565b601d82019050919050565b60006126ca8261269c565b91506126d68284612527565b915081905092915050565b60006020601f8301049050919050565b600082821b905092915050565b60006008830261272e7fffffffffffffffffffffffffffffffffffffffffffffffffffffffffffffffff826126f1565b61273886836126f1565b95508019841693508086168417925050509392505050565b6000819050919050565b600061277561277061276b84611b57565b612750565b611b57565b9050919050565b6000819050919050565b61278f8361275a565b6127a361279b8261277c565b8484546126fe565b825550505050565b600090565b6127b86127ab565b6127c3818484612786565b505050565b5b818110156127e7576127dc6000826127b0565b6001810190506127c9565b5050565b601f82111561282c576127fd81612443565b612806846126e1565b81016020851015612815578190505b612829612821856126e1565b8301826127c8565b50505b505050565b600082821c905092915050565b600061284f60001984600802612831565b1980831691505092915050565b6000612868838361283e565b9150826002028217905092915050565b61288182611aa5565b67ffffffffffffffff81111561289a57612899611da2565b5b6128a482546120d8565b6128af8282856127eb565b600060209050601f8311600181146128e257600084156128d0578287015190505b6128da858261285c565b865550612942565b601f1984166128f086612443565b60005b82811015612918578489015182556001820191506020850194506020810190506128f3565b868310156129355784890151612931601f89168261283e565b8355505b6001600288020188555050505b505050505050565b7f4552433732313a207472616e736665722066726f6d20696e636f72726563742060008201527f6f776e6572000000000000000000000000000000000000000000000000000000602082015250565b60006129a6602583611ab0565b91506129b18261294a565b604082019050919050565b600060208201905081810360008301526129d581612999565b9050919050565b7f4552433732313a207472616e7366657220746f20746865207a65726f2061646460008201527f7265737300000000000000000000000000000000000000000000000000000000602082015250565b6000612a38602483611ab0565b9150612a43826129dc565b604082019050919050565b60006020820190508181036000830152612a6781612a2b565b9050919050565b7f4552433732313a20617070726f766520746f2063616c6c657200000000000000600082015250565b6000612aa4601983611ab0565b9150612aaf82612a6e565b602082019050919050565b60006020820190508181036000830152612ad381612a97565b9050919050565b7f4552433732313a207472616e7366657220746f206e6f6e20455243373231526560008201527f63656976657220696d706c656d656e7465720000000000000000000000000000602082015250565b6000612b36603283611ab0565b9150612b4182612ada565b604082019050919050565b60006020820190508181036000830152612b6581612b29565b9050919050565b7f4e487b7100000000000000000000000000000000000000000000000000000000600052601260045260246000fd5b7f4e487b7100000000000000000000000000000000000000000000000000000000600052601160045260246000fd5b6000612bd582611b57565b9150612be083611b57565b9250828201905080821115612bf857612bf7612b9b565b5b92915050565b6000612c0982611b57565b9150612c1483611b57565b925082612c2457612c23612b6c565b5b828204905092915050565b6000612c3a82611b57565b9150612c4583611b57565b9250828202612c5381611b57565b91508282048414831517612c6a57612c69612b9b565b5b5092915050565b600081519050919050565b600082825260208201905092915050565b6000612c9882612c71565b612ca28185612c7c565b9350612cb2818560208601611ac1565b612cbb81611aeb565b840191505092915050565b6000608082019050612cdb6000830187611bec565b612ce86020830186611bec565b612cf56040830185611d02565b8181036060830152612d078184612c8d565b905095945050505050565b600081519050612d2181611a16565b92915050565b600060208284031215612d3d57612d3c6119e0565b5b6000612d4b84828501612d12565b91505092915050565b7f4552433732313a206d696e7420746f20746865207a65726f2061646472657373600082015250565b6000612d8a602083611ab0565b9150612d9582612d54565b602082019050919050565b60006020820190508181036000830152612db981612d7d565b9050919050565b7f4552433732313a20746f6b656e20616c7265616479206d696e74656400000000600082015250565b6000612df6601c83611ab0565b9150612e0182612dc0565b602082019050919050565b60006020820190508181036000830152612e2581612de9565b905091905056fe4142434445464748494a4b4c4d4e4f505152535455565758595a6162636465666768696a6b6c6d6e6f707172737475767778797a303132333435363738392b2fa2646970667358221220c9f328222a4aacc542f21bbc35e4fb5511af8fc3c5039435541e54f6e7ea152264736f6c63430008110033",
    "linkReferences": {},
    "deployedLinkReferences": {}
}